:040000000CEF00F011
:10000800FACF01F0FBCF02F0E9CF03F0FCED08F0E6
:04001800B6EF08F047
:1008000000010000000A00000064000000E803008E
:100810000010270000A086010040420F008096983B
:100820000000E1F50500CA9A3B4641544543205378
:10083000544F2020414E445245004D617061732059
:100840006520546162656C61732000523D20202058
:100850002020202020543D20202020004156414EC1
:10086000434F203D202020202020202000256C7593
:100870002E25362E366C750000000D0EC16E8A686E
:10088000000E8C6E030E936E9668290EF66E080E9F
:10089000F76E21EE50F0110E0900F5CFDEFFE82EC5
:1008A000FBD73A0EF66E080EF76E21EE61F0110ED0
:1008B0000900F5CFDEFFE82EFBD74B0EF66E080ED3
:1008C000F76E21EE72F0110E0900F5CFDEFFE82E73
:1008D000FBD75C0EF66E080EF76E21EE83F0110E5C
:1008E0000900F5CFDEFFE82EFBD721EE94F011EEE4
:1008F00000F0500EDECFE6FFE82EFCD7D58ED58C6B
:10090000D59AD598D596D550F80B0209D56E6B0EB1
:10091000D66EF28AF184D09EF29CF28E19EC08F029
:10092000000E106E020E0F6EEFEC0AF0010E126E4A
:10093000010EF5EC09F00101010E136E0101500EDC
:10094000126EDDEC0AF0010E126E020EF5EC09F0EB
:100950000101010E136E0101610E126EDDEC0AF051
:100960000C0E42EC09F00B0E106EB80E0F6EEFEC91
:100970000AF0010E126E010EF5EC09F00101010EF4
:10098000136E0101720E126EDDEC0AF0010E126E92
:10099000020EF5EC09F00101010E136E0101830E48
:1009A000126EDDEC0AF084A44FD00001000E106E30
:1009B0000001810E0F6E000E116E0001000E136E0D
:1009C0000001830E126E010E156EF40E146E0F0EE2
:1009D000176EA00E166E000E196E390E186E84A0DA
:1009E00002D0010E01D0000E40EC06F00001000E16
:1009F000106E0001810E0F6E010E116E0001000ECF
:100A0000136E0001800E126E010E156EF40E146E40
:100A10000F0E176EA00E166E000E196E3D0E186E9C
:100A200084A202D0010E01D0000E40EC06F081C07D
:100A300016F082C017F0010E186E040E196E050E26
:100A40001A6E2EEC07F04ED00001000E106E000161
:100A50007E0E0F6E000E116E0001000E136E00016F
:100A6000830E126E000E156E000E146E000E176EC1
:100A70001E0E166E000E196E390E186E84A002D06E
:100A8000010E01D0000E40EC06F00001000E106EC9
:100A900000017E0E0F6E010E116E0001000E136E2E
:100AA0000001800E126E000E156E000E146E000E08
:100AB000176E1E0E166E000E196E3D0E186E84A275
:100AC00002D0010E01D0000E40EC06F07EC016F000
:100AD0007FC017F0010E186E0D0E196E040E1A6EFF
:100AE000BDEC07F081C00FF082C010F0000E126E56
:100AF000640E116E80EC0AF000010FC07AF0000164
:100B000010C07BF000017C6B00017D6B00017AC09E
:100B10006CF000017BC06DF000017CC06EF0000144
:100B20007DC06FF0020ED89000016C376D376E37C4
:100B30006F37E82EF8D76CC00FF06DC010F06EC0A4
:100B400011F06FC012F07AC013F07BC014F07CC0BB
:100B500015F07DC016F055EC0AF00FC070F010C013
:100B600071F011C072F012C073F00001701F711F9C
:100B7000721F731F702B000E7123722373237AC0B0
:100B80000FF07BC010F07CC011F07DC012F0A20EFF
:100B9000136E010E146E000E156E000E166E55ECDF
:100BA0000AF00FC074F010C075F011C076F012C0DA
:100BB00077F000017051000174251B6E0001715126
:100BC000000175211C6E00017251000176211D6E1D
:100BD00000017351000177211E6EE80E1F6E030E97
:100BE000206E000E216E000E226E68EC08F01BC015
:100BF0007AF01CC07BF01DC07CF01EC07DF07AC076
:100C000078F07BC079F07EC00FF07FC010F0000E4E
:100C1000126E0A0E116E80EC0AF00FC033F010C095
:100C200034F033C00FF034C010F0000E126E140E0A
:100C3000116ECAEC0AF0000E00016C6F010E6D6FB0
:100C40000F5000016C27105000016D23D890000157
:100C50007835D96E00017935DA6E00016C51D926EC
:100C600000016D51DA22DECF16F0DDCF17F0020E53
:100C7000186E0A0E196E040E1A6E2EEC07F093D63B
:100C80001E6E1E66A4D012C0D9FF13C0DAFFDF505B
:100C9000D8A49DD012C0D9FF13C0DAFF010EDF6EB9
:100CA000455023241A6E465024201B6E47502520A1
:100CB0001C6E485026201D6E18C0D9FF19C0DAFFDF
:100CC0001AC0DEFF1BC0DEFF1CC0DEFF1DC0DDFF43
:100CD000D906D906116633D00FC0D9FF10C0DAFF8C
:100CE000DECF1AF0DDCF1BF041501A2642501B22F6
:100CF0000FC0D9FF10C0DAFF1AC0DEFF1BC0DDFF36
:100D0000010E416E000E426E000E436E000E446EE8
:100D10000FC0D9FF10C0DAFFDECF1AF0DDCF1BF015
:100D20001A50165C1B501758D8B051D00FC0D9FFBD
:100D300010C0DAFF16C0DEFF17C0DDFF48D00FC0BD
:100D4000D9FF10C0DAFFDECF1AF0DDCF1BF041C0B3
:100D50001CF042C01DF01C1E1D1E1C4A1D2A1A50EC
:100D60001C261B501D220FC0D9FF10C0DAFF1CC06B
:100D7000DEFF1DC0DDFF010E416E000E426E000E53
:100D8000436E000E446E0FC0D9FF10C0DAFFDECFF5
:100D90001AF0DDCF1BF014501A5C15501B58D8A068
:100DA0000ED00FC0D9FF10C0DAFFDECF1AF0DDCFB2
:100DB0001BF01A50165C1B501758D8B008D00FC043
:100DC000D9FF10C0DAFF14C0DEFF15C0DDFF1E041E
:100DD000D8A415D0010E12C0D9FF13C0DAFFDF620C
:100DE0000ED012C0D9FF13C0DAFF000EDF6E49C06B
:100DF00045F04AC046F04BC047F04CC048F01E6674
:100E00002CD018C0D9FF19C0DAFFDECF1AF0DECF20
:100E10001BF0DECF1CF0DECF1DF023501A5C2450F7
:100E20001B5825501C5826501D58D8B016D012C03B
:100E3000D9FF13C0DAFF000EDF6E640E416E000EA4
:100E4000426E000E436E000E446E640E456E000E40
:100E5000466E000E476E000E486E1200040E000132
:100E60006A6F000E00016B6F000E0001616F300EA3
:100E70000001606F000E0001636F300E0001626FB1
:100E8000000E0001656F300E0001646F000E00015E
:100E9000676F300E0001666F000E0001696F300E43
:100EA0000001686F2DD016C00FF017C010F0000EB3
:100EB000126E0A0E116EA9EC0AF0300E0F26000E0B
:100EC000102200016A51020D0001600EF324D96E58
:100ED0000001000EF420DA6E0FC0DEFF10C0DDFF4F
:100EE00016C00FF017C010F0000E126E0A0E116E31
:100EF00080EC0AF00FC016F010C017F000016A076E
:100F00000A0E165C000E1758D8B0CDD7300E162436
:100F10001B6E000E17201C6E00016A51020D0001AD
:100F2000600EF324D96E0001000EF420DA6E1BC0AF
:100F3000DEFF1CC0DDFF19C012F01850F5EC09F0FF
:100F400017D000016B511A6203D02C0E87EC09F008
:100F500000016B51020D0001600EF324D96E0001F7
:100F6000000EF420DA6EDF5087EC09F000016B2BE5
:100F7000040E00016B65E5D71200020E1E6E000E16
:100F80001F6E300E1B6E300E1C6E300E1D6E19C0A3
:100F900012F01850F5EC09F024D01E50010D1B0E74
:100FA000F324D96E000EF420DA6E16C00FF017C0CD
:100FB00010F0000E126E0A0E116EA9EC0AF00F501E
:100FC000300FDF6E16C00FF017C010F0000E126E5B
:100FD0000A0E116E80EC0AF00FC016F010C017F068
:100FE0001E060A0E165C000E1758D8B0D6D71E5033
:100FF000010D1B0EF324D96E000EF420DA6E16508C
:10100000300FDF6E12D01F501A6203D02C0E87EC07
:1010100009F01F50010D1B0EF324D96E000EF420B1
:10102000DA6EDF5087EC09F01F2A020E1F64EBD73F
:1010300012009594959295909598959A959C959E69
:10104000839483928390839E839C838A8388EA0E11
:10105000126EC30EE82EFED7122EFCD700F083804E
:1010600000EC0BF0839000EC0BF04E0E126EEB0ECA
:10107000E82EFED7122EFCD700F0838000EC0BF098
:10108000839000EC0BF04E0E126EEB0EE82EFED7A6
:10109000122EFCD700F0838000EC0BF0839000EC64
:1010A0000BF0839E839C838A8398838000EC0BF0F3
:1010B000839000EC0BF0280E42EC09F0060E42EC97
:1010C00009F00E0E42EC09F0010E42EC09F012009C
:1010D000000E0001606F000E0001616F000E000144
:1010E000626F000E0001636F22501F10201021104C
:1010F000D8B433D0010E0001646F07D0D8901F36EA
:101100002036213622360001642B22AEF7D70001AB
:10111000D89000016037000161370001623700019B
:1011200063371F501B5C20501C5821501D58225003
:101130001E58D8A00AD01F501B5E20501C5A2150A8
:101140001D5A22501E5A00016081D890223221324D
:1011500020321F320001642FDAD760C01BF061C05B
:101160001CF062C01DF063C01EF0120001EEEFF033
:10117000110EEE6AE806FDE100EE78F0090EEE6A67
:10118000E806FDE100EE23F01E0EEE6AE806FDE142
:101190004E0EF66E140EF76E000EF86E01EE94F021
:1011A00010EE5BF00900F5CFEEFFE550E150FAE1FB
:1011B0002F0EF66E160EF76E000EF86E0900F5CFC4
:1011C00081F00900F5CF82F00900F5CF83F0220EFF
:1011D000F66E160EF76E000EF86E00EE41F010EE91
:1011E0000DF00900F5CFEEFFE550E150FAE1000EF9
:1011F000F86E00013DEF04F00600EACF04F0E1CF05
:1012000005F0E2CF06F0D9CF07F0DACF08F0F3CF40
:1012100009F0F4CF0AF0F6CF0BF0F7CF0CF0F8CFCF
:101220000DF0F5CF0EF0F2A410D0F294010E2726A7
:10123000000E282229222A22010E2326000E242213
:1012400025222622D6506B0FD66E0EC0F5FF0DC09C
:10125000F8FF0CC0F7FF0BC0F6FF0AC0F4FF09C08F
:10126000F3FF08C0DAFF07C0D9FF06C0E2FF05C0E0
:10127000E1FF04C0EAFF03C0E9FF02C0FBFF01C0B9
:10128000FAFF1100116E83948392839011A802D00B
:10129000838801D0839811AA02D0838A01D0839ACF
:1012A00011AC02D0838C01D0839C11AE02D0838E0E
:1012B00001D0839E838000EC0BF0839000EC0BF058
:1012C00011A002D0838801D0839811A202D0838A12
:1012D00001D0839A11A402D0838C01D0839C11A6E3
:1012E00002D0838E01D0839E838000EC0BF083902C
:1012F00000EC0BF01104D8B407D01150020AD8B496
:1013000003D01150030AD8B400EC0BF01200116E98
:1013100083948382839011A802D0838801D083981C
:1013200011AA02D0838A01D0839A11AC02D0838C97
:1013300001D0839C11AE02D0838E01D0839E838026
:1013400000EC0BF0839000EC0BF011A002D083882E
:1013500001D0839811A202D0838A01D0839A11A46C
:1013600002D0838C01D0839C11A602D0838E01D041
:10137000839E838000EC0BF0839000EC0BF0120056
:10138000116E839483928390838E11A802D08388F8
:1013900001D0839811AA02D0838A01D0839A11AC1C
:1013A00002D0838C01D0839C838000EC0BF083906F
:1013B00000EC0BF011A002D0838801D0839811A219
:1013C00002D0838A01D0839A11A402D0838C01D0E9
:1013D000839C11A602D0838E01D0839E838000EC73
:1013E0000BF0839000EC0BF01200136E000E146EE5
:1013F00012061ED012C014F01450C0EC09F026D012
:101400001250400F146E1450C0EC09F01FD012504F
:10141000140F146E1450C0EC09F018D01250540F71
:10142000146E1450C0EC09F011D0000E146E0ED0E2
:101430001350010AD8B4DED7030AD8B4E1D7010AA1
:10144000D8B4E5D7070AD8B4E9D7EFD71200180106
:1014500018011801100122012C012C012C012C0172
:101460002C0118011801180138014C0156015601D0
:1014700056011A011A01180118014A019F019F0122
:10148000AB01B501B501420142011F012C0142012E
:10149000650172017201B501CC0142014201303097
:1014A0003030303000E803000000000E176E000EF0
:1014B000186E000E196E000E1A6E0FA008D0135091
:1014C0001726145018221550192216501A22D89097
:1014D0001336143615361636D890123211321032B1
:1014E0000F3212500F1010101110D8A4E6D717C0E9
:1014F0000FF018C010F019C011F01AC012F012004D
:10150000000E156E000E146E12501110D8B41CD0BF
:10151000010E136E04D0D89011361236132A12AE73
:10152000FAD7D8901436153611500F5C1250105857
:10153000D8A005D011500F5E1250105A1480D890C8
:1015400012321132132EEDD714C00FF015C010F067
:10155000120012501110D8B418D0010E136E04D01E
:10156000D89011361236132A12AEFAD711500F5CEA
:1015700012501058D8A004D011500F5E1250105ABB
:10158000D89012321132132EF1D70FC00FF010C0C5
:1015900010F012000F501102F3CF13F0F4CF14F03B
:1015A0000F501202F350142610501102F35014265B
:1015B00013C00FF014C010F0120009D012C0D9FFF0
:1015C00013C0DAFFDF5087EC09F0124A132A12C069
:1015D000D9FF13C0DAFFDF50D8B41200EFD708D01C
:1015E000100E116E940EE82EFED7112EFCD700D0EF
:1015F0000F06D8A0100610500F10D8B41200F0D764
:10160000000E0F6E0AD000F0000E106E02D000F037
:10161000102A1D0E1064FBD70F2A1D0E0F64F3D77E
:1016200012000100000010270000102700000AF43B
:021630000101B6
:020000040020DA
:08000000FFFFFFFFFFFFFFFF00
:020000040030CA
:0E00000000051F1FFF8385FF0FC00FE00F409C
:00000001FF
