:040000001BEF04F0FE
:1008000000010000000A00000064000000E803008E
:100810000010270000A086010040420F008096983B
:100820000000E1F50500CA9A3B256C752E25362E91
:10083000366C7500000000EE01F0110EEE6AE8065D
:10084000FDE1B60EF66E080EF76E000EF86E00EEC5
:1008500012F010EE07F00900F5CFEEFFE550E15081
:10086000FAE1000EF86E000136EF04F00F0EC16ED3
:10087000000E936E8A68818E000E1A6E640E196ED9
:100880004AEC04F0819E000E1A6E640E196E4AEC5A
:1008900004F0F1D708D0100E1B6E940EE82EFED790
:1008A0001B2EFCD700D01906D8A01A061A50191012
:0E08B000D8B41200F0D73030303030300000B5
:020000040020DA
:08000000FFFFFFFFFFFFFFFF00
:020000040030CA
:0E00000000051F1FFF8385FF0FC00FE00F409C
:00000001FF
