:040000004EEF04F0CB
:1008000000010000000A00000064000000E803008E
:100810000010270000A086010040420F008096983B
:100820000000E1F50500CA9A3B256C752E25362E91
:10083000366C750000000F0EC16E000E936E110E27
:10084000966E84B014D0819E819C819A8198010E0D
:100850001A6EF40E196E69EC04F0818E818C818A17
:100860008188010E1A6EF40E196E69EC04F084B2E0
:10087000E8D78190819281948196010E1A6EF40ED0
:10088000196E69EC04F08180818281848186010E79
:100890001A6EF40E196E69EC04F0D3D700EE01F075
:1008A000110EEE6AE806FDE1F40EF66E080EF76E24
:1008B000000EF86E00EE12F010EE07F00900F5CF12
:1008C000EEFFE550E150FAE1000EF86E00011BEF7B
:1008D00004F008D0100E1B6E940EE82EFED71B2ECF
:1008E000FCD700D01906D8A01A061A501910D8B48F
:0C08F0001200F0D7303030303030000003
:020000040020DA
:08000000FFFFFFFFFFFFFFFF00
:020000040030CA
:0E00000000051F1FFF8385FF0FC00FE00F409C
:00000001FF
