:0400000002EF06F015
:1008000000010000000A00000064000000E803008E
:100810000010270000A086010040420F008096983B
:100820000000E1F50500CA9A3B4641544543205378
:10083000544F2020414E445245002A2A20536571CE
:1008400075656E6369616C202A2A00256C752E25FA
:10085000362E366C750000000D0EC16E8A68000ED3
:100860008C6E000E936E290EF66E080EF76E20EE5B
:1008700007F0110E0900F5CFDEFFE82EFBD73A0E88
:10088000F66E080EF76E20EE18F0110E0900F5CF87
:10089000DEFFE82EFBD7CEEC04F0000E026E020E57
:1008A000016E46EC06F0010E046E010ED0EC05F070
:1008B000000E056E070E046E34EC06F0010E046E99
:1008C000020ED0EC05F0000E056E180E046E34EC2E
:1008D00006F00C0E1DEC05F00B0E026EB80E016E4C
:1008E00046EC06F0010E446E18D04450FF0A8A6EA2
:1008F00044504424446E41C001F042C002F046EC32
:1009000006F041C004F042C005F068EC06F041C0BA
:1009100001F042C002F01DEC06F04466E6D7800EFE
:10092000446E18D04450FF0A8A6ED8904430446E0A
:1009300041C001F042C002F046EC06F041C004F0B4
:1009400042C005F068EC06F041C001F042C002F080
:100950001DEC06F04466E6D7010E446E1CD044C080
:1009600001F0026A7DEC06F00150446E44504424CC
:10097000446E41C001F042C002F046EC06F041C0B6
:1009800004F042C005F068EC06F041C001F042C03E
:1009900002F01DEC06F04466E2D7A4D79594959238
:1009A00095909598959A959C959E83948392839023
:1009B000839E839C838A8388EA0E046EC30EE82E8E
:1009C000FED7042EFCD700F0838057EC06F083900E
:1009D00057EC06F04E0E046EEB0EE82EFED7042EFA
:1009E000FCD700F0838057EC06F0839057EC06F0BC
:1009F0004E0E046EEB0EE82EFED7042EFCD700F050
:100A0000838057EC06F0839057EC06F0839E839C1E
:100A1000838A8398838057EC06F0839057EC06F026
:100A2000280E1DEC05F0060E1DEC05F00E0E1DEC5B
:100A300005F0010E1DEC05F01200036E8394839205
:100A4000839003A802D0838801D0839803AA02D0A0
:100A5000838A01D0839A03AC02D0838C01D0839C1B
:100A600003AE02D0838E01D0839E838057EC06F0C4
:100A7000839057EC06F003A002D0838801D08398BE
:100A800003A202D0838A01D0839A03A402D0838C6C
:100A900001D0839C03A602D0838E01D0839E8380E5
:100AA00057EC06F0839057EC06F00304D8B407D057
:100AB0000350020AD8B403D00350030AD8B457EC49
:100AC00006F01200036E83948382839003A802D001
:100AD000838801D0839803AA02D0838A01D0839AA5
:100AE00003AC02D0838C01D0839C03AE02D0838EF2
:100AF00001D0839E838057EC06F0839057EC06F07C
:100B000003A002D0838801D0839803A202D0838AF5
:100B100001D0839A03A402D0838C01D0839C03A6C6
:100B200002D0838E01D0839E838057EC06F08390A1
:100B300057EC06F01200036E839483928390838EA9
:100B400003A802D0838801D0839803AA02D0838AA5
:100B500001D0839A03AC02D0838C01D0839C838024
:100B600057EC06F0839057EC06F003A002D0838880
:100B700001D0839803A202D0838A01D0839A03A470
:100B800002D0838C01D0839C03A602D0838E01D037
:100B9000839E838057EC06F0839057EC06F012009A
:100BA000056E000E066E04061ED004C006F0065048
:100BB0009BEC05F026D00450400F066E06509BECCF
:100BC00005F01FD00450140F066E06509BEC05F084
:100BD00018D00450540F066E06509BEC05F011D04F
:100BE000000E066E0ED00550010AD8B4DED7030AF7
:100BF000D8B4E1D7010AD8B4E5D7070AD8B4E9D701
:100C0000EFD7120000EE29F0110EEE6AE806FDE1C2
:100C1000EE0EF66E0C0EF76E000EF86E00EE3AF069
:100C200010EE0BF00900F5CFEEFFE550E150FAE1D0
:100C3000000EF86E00012CEF04F084B214D09C0E6C
:100C40004124416EFF0E4220426E4250800AF36EF4
:100C5000800EF35C010ED8B4415CD8B004D0000E15
:100C6000426E640E416E120009D004C0D9FF05C067
:100C7000DAFFDF5062EC05F0044A052A04C0D9FF10
:100C800005C0DAFFDF50D8B41200EFD708D0100E3D
:100C9000036E940EE82EFED7032EFCD700D001067B
:100CA000D8A0020602500110D8B41200F0D7000EEE
:100CB000016E0AD000F0000E026E02D000F0022A8F
:100CC0001D0E0264FBD7012A1D0E0164F3D712002A
:100CD00084B00CD0640E4124416E000E4220426E5E
:100CE000000E026E640E016E46EC06F0120030300B
:100CF0003030303000F4010101000150FF0A8A6EEB
:020D00001200DF
:020000040020DA
:08000000FFFFFFFFFFFFFFFF00
:020000040030CA
:0E00000000051F1FFF8385FF0FC00FE00F409C
:00000001FF
